:020000040800F2
:1000000060040020AD010008670F0008110F000810
:10001000650F0008DD0300086910000800000000FB
:100020000000000000000000000000008B0F00082E
:10003000DF03000800000000890F00088D0F000892
:10004000C7010008C7010008C7010008C701000870
:10005000C7010008C7010008C7010008C701000860
:10006000C7010008C7010008C7010008C701000850
:10007000C7010008C7010008C7010008C701000840
:10008000C7010008C7010008C70100080000000000
:10009000000000000000000000000000C701000890
:1000A000C7010008C7010008C7010008C701000810
:1000B000C7010008C7010008C7010008C701000800
:1000C000C7010008C7010008C7010008C7010008F0
:1000D000C7010008C7010008C701000800000000B0
:1000E000C7010008C7010008C701000800000000A0
:1000F000000000000000000000000000C701000830
:1001000000000000C7010008C7010008C70100087F
:1001100000000000000000000000000000000000DF
:10012000C7010008C7010008C7010008C70100088F
:10013000C7010008000000000000000000000000EF
:10014000000000000000000000000000C7010008DF
:10015000C7010008C7010008C7010008C70100085F
:10016000C7010008C70100080000000000000000EF
:10017000000000000000000000000000000000007F
:1001800000000000C701000800000000000000009F
:10019000C7010008C7010008DFF80CD000F07AF8AA
:1001A0000048004789100008600400200648804786
:1001B00006480047FEE7FEE7FEE7FEE7FEE7FEE74C
:1001C000FEE7FEE7FEE7FEE71510000899010008CC
:1001D0002DE9F05F0546002092469B46884606467C
:1001E000814640241BE0284641464746224600F00F
:1001F00041F853465A46C01A914110D31146184649
:10020000224600F028F82D1A67EB01084F462246D7
:100210000120002100F01FF817EB00094E41201EBD
:10022000A4F10104DFDC484631462A464346BDE8D6
:10023000F09FD2B201E000F8012B491EFBD27047BB
:100240000022F6E710B513460A4604461946FFF7A2
:10025000F0FF204610BD202A04DB203A00FA02F10C
:10026000002070479140C2F1200320FA03F31943A4
:1002700090407047202A04DB203A21FA02F0002146
:10028000704721FA02F3D040C2F1200291400843A6
:1002900019467047064C074D06E0E06840F0010340
:1002A00094E8070098471034AC42F6D3FFF778FF84
:1002B000EC1000080C110008454910B54A6822F4FA
:1002C00040324A604A6843681A434A6001684A6893
:1002D00022F480724A6001684A68036942EA032294
:1002E0004A6001684A6822F040724A6001684A68C0
:1002F00083681A434A6001688A6822F400628A604F
:1003000001688A68C3681A438A60816A6FF0706204
:10031000D14201688A6822F070628A6001688A6846
:100320000CD0836A1A438A6001688A6822F04052BE
:100330008A6001688A68C36A1A4301E022F0405269
:100340008A6001688A6822F002028A6001688A680D
:10035000836942EA43028A60016A002901684A68A7
:100360000FD042F400624A6001684A6822F4604299
:100370004A6001684A68174C436A04EB43331A43E6
:1003800001E022F400624A600168CA6A22F4700245
:10039000CA620168CA6A838B0F4C04EB03531A4389
:1003A000CA6201688A6822F400728A6001688A68F9
:1003B000036B42EA43228A6001688A6822F4806201
:1003C0008A6001688A68406942EA8020886010BDBE
:1003D0000023014000E0FFFF0000F0FFFEE7704750
:1003E00078B50024009490F83C20012A19D001220D
:1003F00080F83C200A6807230568092A13D9EE68AB
:100400000A3A02EB420293409E43EE600A788B6800
:100410000A3A02EB420293400268D5682B43D3604C
:1004200010E0022078BD2E6902EB420293409E4309
:100430002E610A788B6802EB4202934002681569CC
:100440002B4313614A681F23072A13D205686E6B7A
:10045000521E02EB820293409E436E630B790A8820
:100460005B1E92B203EB83039A4003685D6B2A43E1
:100470005A6327E005680D2A12D22E6BD21F02EBB9
:10048000820293409E432E630B790A88DB1F92B24F
:1004900003EB83039A4003681D6B2A431A6311E040
:1004A000EE6A0D3A02EB820293409E43EE620B79B4
:1004B0000A880D3B92B203EB83039A400368DD6A1E
:1004C0002A43DA62174B0568154A9D4206D10D682A
:1004D000122D03D1556845F48005556005689D428D
:1004E00019D1114D0B68AB4201D0112B13D15368B8
:1004F00043F4000353600968A9420CD10B490C4A2C
:100500000968B1FBF2F101EB8101490000E0491EED
:1005100000910029FBD180F83C40002078BD00000C
:1005200000230140002001401200001010000020B4
:1005300040420F000068C06C704770B504004FF077
:10054000000503D0206C002610B107E0012070BD2B
:10055000666484F83C60204600F01AF8206CC006FF
:1005600010D4206C20F4885040F002002064204613
:10057000FFF7A2FE6664206C20F0020040F001004C
:10058000206400E0012584F83C60284670BD00002E
:1005900010B586B0044614216846FFF751FE114994
:1005A000206888421CD110480021026842F4807201
:1005B0000260006800F4807005900B4814380268EF
:1005C00042F001020260006800F001000590012085
:1005D00000900320CDE901016946044800F0D6F8F7
:1005E00006B010BD00200140443802400000024027
:1005F0002DE9F041044600680D4681684FF0000780
:1006000049050BD58068C00508D5206C40F0200056
:10061000206484F83C700120BDE8F08100F07AF994
:1006200006460FE0681C0DD025B100F073F9801B61
:10063000A84207D9206C40F00400206484F83C7084
:100640000320E9E7206800688007EBD521686FF098
:1006500012000860206C40F40070206420688168FB
:1006600011F0405F13D1A16989B9C16A11F4700F0B
:1006700002D0806840050AD4206C20F48070206489
:10068000206CC00403D4206C40F0010020640020E2
:10069000C2E7000018B50021009190F83C20012A23
:1006A00007D0012280F83C2002689368DB0702D063
:1006B00011E0022018BD936843F001039360204AC3
:1006C000204B1268B2FBF3F202EB420200E0521E32
:1006D0000092002AFBD102689368DB072DD0036CDF
:1006E00040F20164A34343F48073036453685B05E1
:1006F00005D5036C23F4005343F480530364036C67
:10070000DB0404D5436C23F00603436400E041643A
:1007100080F83C100C496FF02203136049680068B0
:10072000C90602D00949884207D1816811F0405FAB
:1007300003D1816841F080418160002018BD000034
:100740001000002040420F00002301400020014023
:1007500090F83C1001290CD0012180F83C10016870
:100760008A6822F001028A6001688968C90702D09C
:1007700007E002207047016C21F4885141F001012B
:100780000164002180F83C10084670472DE9F84FBD
:10079000DFF860B100224FF001084FF0030A4FF07C
:1007A0000F090BF1040E00BF0B6808FA02F4234096
:1007B000A3426ED14D68022D01D0122D0ED1D50865
:1007C00000EB850CDCF820505607F70E09FA07F607
:1007D000B5430E69BE402E43CCF820600668550034
:1007E0000F790AFA05FC07F0030726EA0C06AF406A
:1007F000374307604E68012E05D0022E03D0112E1C
:1008000001D0122E0ED18668CF6826EA0C06AF40C2
:10081000374387604668A6430C79C4F300149440BC
:1008200034434460C6688C6826EA0C06AC40344306
:10083000C4604C68E40056D52F4C256845F48045CB
:100840002560246822F0030504F4804400942B4CB6
:100850002E19D6F8084895072F0F09FA07F5AC436B
:10086000274DA84201D1002515E0264DA84201D10F
:10087000012510E0244DA84201D102250BE0234DB3
:10088000A84201D1032506E0214DA84202D104254A
:1008900001E028E00725BD402543C6F80858DBF8ED
:1008A00000405D464E689C43F60300D51C432C6017
:1008B000DEF8004075464E689C43B60300D51C43E5
:1008C0002C600C4D08352C684E689C43F60200D510
:1008D0001C432C60074D0C352C684E689C43B602B7
:1008E00000D51C432C60521C102AFFF45DAFBDE8FC
:1008F000F88F0000003C01404438024000300140C5
:10090000000002400004024000080240000C0240C7
:100910000010024001488068704700000400002079
:100920000248816802781144816070470400002009
:100930000B4810B5016841F400710160016841F491
:1009400080610160016841F480710160032000F062
:1009500063F8002000F006F800F024F8002010BD35
:10096000003C024070B50D4D04464FF47A71287872
:10097000B1FBF0F00A490968B1FBF0F000F0B4FAFD
:1009800048B9102C07D200222146501E00F024F84E
:1009900000206C6070BD012070BD000004000020CC
:1009A000100000200B4882B0016841F480410160D2
:1009B000006800F4804000900648001F016841F084
:1009C00080510160006800F080500090072002B064
:1009D00000F022B844380240F0B40E4B1B680C46BD
:1009E000C3F30223C3F10705042D00D90425191D03
:1009F000072901D2002300E0DB1E012606FA05F1DB
:100A0000491E214099409E40761E16403143F0BC5D
:100A100000F0AABA0CED00E0064900F007020868F1
:100A20004FF6FF03184040EA0220034A10430860D3
:100A3000704700000CED00E00000FA052DE9F047DA
:100A40000E46050065D0DFF81481D8F80000F7B233
:100A500000F00F00B04207D288F80070D8F800000C
:100A600000F00F00B04254D128683D4C810712D5E8
:100A7000400703D5206840F4E05020602878000744
:100A800003D5206840F4604020602068A96820F009
:100A9000F000084320602878C0072DD030496868EE
:100AA0000839012812D0022813D0032811D0096870
:100AB000890700292DDA216821F003010143216013
:100AC000FFF728FF814641F2883A0EE00968890362
:100AD000EFE709688901ECE7FFF71CFFA0EB0901CC
:100AE000514502D90320BDE8F0872068696800F00D
:100AF0000C00B0EB810FEFD1D8F80010404601F0A8
:100B00000F01B14207D90770006800F00F00B04232
:100B100001D00120E7E72878400705D52068E9687B
:100B200020F4E050084320602878000706D52068AC
:100B3000296920F4604040EAC100206000F016F806
:100B40002168084AC1F30311515CC8400649086096
:100B50000020FFF707FF0020C5E70000003C02402F
:100B600008380240DC10000810000020154810B5BD
:100B7000006810F00C02144813D04110042A0FD062
:100B8000082A0ED10F4C241F2268236802F03F026E
:100B90005B0207D52068C0F38810A0FB010106E0C6
:100BA000084610BD2168C1F38811A1FB0001002394
:100BB000FFF70EFB2168C1F30141491C4900B0FB5E
:100BC000F1F010BD083802400024F4002DE9F84F80
:100BD000050076D02878DFF8F8B2BE4CC00749D0BF
:100BE000DBF800105846C1F38101012908D00068E4
:100BF000C0F3810002280AD1201D0068400206D5FA
:100C00002068800336D568680028E2D032E0686842
:100C1000B0F5803F10D0B0F5A02F206810D020F4A0
:100C200080302060206820F4802020606868A0B1B7
:100C3000FFF770FE06460CE0206840F48030F4E7D1
:100C400040F480202060F7E7FFF764FE801B6428F3
:100C500073D820688003F7D50CE0FFF75BFE0646EB
:100C600005E000BFFFF756FE801B6428F0D820681F
:100C70008003F7D42878DFF8608280074FF00009FE
:100C80003ED5DBF80010584611F00C0F09D0006873
:100C9000C0F3810002280BD18D48001F006840027C
:100CA00006D42068800715D5E868012809D111E02D
:100CB000E868B8B10120C8F80000FFF72BFE06462F
:100CC00005E002E1FFF726FE801B0228C0D820685D
:100CD0008007F7D52068296920F0F80040EAC100B4
:100CE00020600DE0C8F80090FFF714FE064604E00F
:100CF000FFF710FE801B02281FD820688007F7D45A
:100D00002878000722D5724E744869696C3671B133
:100D100001210160FFF7FEFD074604E0FFF7FAFD41
:100D2000C01B022809D830688007F7D50EE0C0F84C
:100D30000090FFF7EFFD074605E083E0FFF7EAFDCF
:100D4000C01B02287ED830688007F7D42878400777
:100D500068D5DFF87CA100270AF1380ADAF800002C
:100D6000C0000BD4DAF8001041F08051CAF800102E
:100D7000DAF80000012700F080500090584E3068EB
:100D8000C00510D4306840F480703060FFF7C2FDB9
:100D9000009005E0FFF7BEFD0099401A022851D8E7
:100DA0003068C005F6D54A4EA868683601280FD0CD
:100DB0000528306810D020F001003060306820F045
:100DC00004003060A868B8B1FFF7A4FD00900FE000
:100DD000306840F00100F4E740F004003060F7E7CD
:100DE000FFF798FD0099411A41F28830814264D89A
:100DF00030688007F4D50EE0FFF78CFD009007E027
:100E0000FFF788FD0099411A41F28830814254D899
:100E100030688007F4D42FB1DAF8001021F0805147
:100E2000CAF80010A869C0B3DBF80010C1F3810153
:100E300002294AD00228484607D0C8F86000FFF7C8
:100E400069FD00E039E005463AE04746C8F8600031
:100E5000FFF760FD064604E0FFF75CFD801B0228FB
:100E60002BD820688001F7D4D5E907010843A96A87
:100E70001C4A490802EB01416A6A41EA82110843AF
:100E800095F82C1040EA01611148001F0160012013
:100E90003866FFF73FFD054605E014E0FFF73AFD31
:100EA000401B022809D820688001F7D50BE000BF5D
:100EB000FFF730FD401B022802D90320BDE8F88F60
:100EC00020688001F4D40020F8E70120F6E7000054
:100ED000083802400038024000004742800E474276
:100EE000007000400000FFFF10B5401EB0F1807F91
:100EF00001D3012010BD4FF0E02460610F21601785
:100F000000F032F80020A06107202061002010BD11
:100F1000FEE700007FB5002410480094019402947D
:100F20000D490394C0E90014046184614FF000711D
:100F3000046281600A49C0E90A140125C460C561E0
:100F400045610463FFF7F9FACDE9004569460348B6
:100F50000294FFF745FA7FBD0020014014000020F5
:100F60000100000FFEE770470907090E002806DAA6
:100F700000F00F0000F1E02080F8141D704700F130
:100F8000E02080F80014704770477047FFF7C8BC36
:100F900030B593B030216846FFF752F914210CA800
:100FA000FFF74EF919480025016841F080510160B2
:100FB000006800F0805011901548016841F44041EC
:100FC00001600068C02100F44040119001200390AE
:100FD0001020049008200224CDE908010094042187
:100FE000CDE90A106846CDE90645FFF7EFFD0CA9EB
:100FF0000F2081E831004FF4A0500F90E0021090D4
:1010000003210CA8FFF71AFD13B030BD4038024091
:10101000007000401048016841F4700101600F4801
:10102000016841F0010101600C4A002108321160A1
:1010300002680B4B1A400260031D0A4A1A600268DC
:1010400022F48022026005480C30016002495806F3
:10105000803908607047000088ED00E000380240E9
:10106000FFFFF6FE10300024FEE702E008C8121F62
:1010700008C1002AFAD170477047002001E001C181
:10108000121F002AFBD1704708B5FFF751FCFFF78C
:101090007FFF0F48016841F001010160006800F026
:1010A00001000090FFF736FF0A4C4FF0FF350A4869
:1010B000FFF7F0FA29460848FFF79AFA18B90648E8
:1010C000FFF738FA20600448FFF742FBEFE7000023
:1010D0003038024000000020140000200000000012
:1010E0000000000001020304060708090C110008B3
:1010F00000000020140000006A1000082011000801
:10110000140000204C0400007A10000800000000C9
:101110000100000010000000000000000024F400A6
:040000050800019955
:00000001FF
